{
  "contractName": "Charity",
  "abi": [
    {
      "inputs": [
        {
          "internalType": "string",
          "name": "_orgID",
          "type": "string"
        },
        {
          "internalType": "string",
          "name": "_orgName",
          "type": "string"
        },
        {
          "internalType": "string",
          "name": "_aim",
          "type": "string"
        },
        {
          "internalType": "string",
          "name": "_website",
          "type": "string"
        },
        {
          "internalType": "uint256",
          "name": "_balance",
          "type": "uint256"
        }
      ],
      "name": "setOrganization",
      "outputs": [],
      "stateMutability": "nonpayable",
      "type": "function"
    },
    {
      "inputs": [
        {
          "internalType": "string",
          "name": "_orgID",
          "type": "string"
        }
      ],
      "name": "getOrganization",
      "outputs": [
        {
          "internalType": "string",
          "name": "",
          "type": "string"
        },
        {
          "internalType": "string",
          "name": "",
          "type": "string"
        },
        {
          "internalType": "string",
          "name": "",
          "type": "string"
        },
        {
          "internalType": "string",
          "name": "",
          "type": "string"
        },
        {
          "internalType": "uint256",
          "name": "",
          "type": "uint256"
        },
        {
          "internalType": "uint256",
          "name": "",
          "type": "uint256"
        }
      ],
      "stateMutability": "view",
      "type": "function",
      "constant": true
    },
    {
      "inputs": [],
      "name": "getAllOrganizations",
      "outputs": [
        {
          "components": [
            {
              "internalType": "string",
              "name": "orgID",
              "type": "string"
            },
            {
              "internalType": "string",
              "name": "orgName",
              "type": "string"
            },
            {
              "internalType": "string",
              "name": "aim",
              "type": "string"
            },
            {
              "internalType": "string",
              "name": "website",
              "type": "string"
            },
            {
              "internalType": "uint256",
              "name": "balance",
              "type": "uint256"
            },
            {
              "internalType": "uint256",
              "name": "donationsRecieved",
              "type": "uint256"
            }
          ],
          "internalType": "struct Charity.organization[]",
          "name": "",
          "type": "tuple[]"
        }
      ],
      "stateMutability": "view",
      "type": "function",
      "constant": true
    },
    {
      "inputs": [
        {
          "internalType": "string",
          "name": "_donorID",
          "type": "string"
        },
        {
          "internalType": "string",
          "name": "_donorName",
          "type": "string"
        }
      ],
      "name": "setDonor",
      "outputs": [],
      "stateMutability": "nonpayable",
      "type": "function"
    },
    {
      "inputs": [
        {
          "internalType": "string",
          "name": "_donorID",
          "type": "string"
        }
      ],
      "name": "getDonor",
      "outputs": [
        {
          "internalType": "string",
          "name": "",
          "type": "string"
        },
        {
          "internalType": "string",
          "name": "",
          "type": "string"
        }
      ],
      "stateMutability": "view",
      "type": "function",
      "constant": true
    },
    {
      "inputs": [],
      "name": "getAllDonors",
      "outputs": [
        {
          "components": [
            {
              "internalType": "string",
              "name": "donorID",
              "type": "string"
            },
            {
              "internalType": "string",
              "name": "donorName",
              "type": "string"
            }
          ],
          "internalType": "struct Charity.donor[]",
          "name": "",
          "type": "tuple[]"
        }
      ],
      "stateMutability": "view",
      "type": "function",
      "constant": true
    },
    {
      "inputs": [
        {
          "internalType": "string",
          "name": "_donorID",
          "type": "string"
        },
        {
          "internalType": "string",
          "name": "_orgID",
          "type": "string"
        },
        {
          "internalType": "uint256",
          "name": "_donatedAmount",
          "type": "uint256"
        }
      ],
      "name": "makeDonation",
      "outputs": [],
      "stateMutability": "nonpayable",
      "type": "function"
    },
    {
      "inputs": [
        {
          "internalType": "string",
          "name": "_orgID",
          "type": "string"
        },
        {
          "internalType": "uint256",
          "name": "_withDrawalAmount",
          "type": "uint256"
        },
        {
          "internalType": "string",
          "name": "_useofAmount",
          "type": "string"
        },
        {
          "internalType": "string",
          "name": "_vendorName",
          "type": "string"
        },
        {
          "internalType": "string",
          "name": "_vendorAddress",
          "type": "string"
        }
      ],
      "name": "makeWithDrawal",
      "outputs": [],
      "stateMutability": "nonpayable",
      "type": "function"
    },
    {
      "inputs": [],
      "name": "getAllDonations",
      "outputs": [
        {
          "components": [
            {
              "internalType": "uint256",
              "name": "tranID",
              "type": "uint256"
            },
            {
              "internalType": "string",
              "name": "donorID",
              "type": "string"
            },
            {
              "internalType": "string",
              "name": "organizationID",
              "type": "string"
            },
            {
              "internalType": "uint256",
              "name": "donatedAmount",
              "type": "uint256"
            }
          ],
          "internalType": "struct Charity.donations[]",
          "name": "",
          "type": "tuple[]"
        }
      ],
      "stateMutability": "view",
      "type": "function",
      "constant": true
    },
    {
      "inputs": [],
      "name": "getAllWithdrawals",
      "outputs": [
        {
          "components": [
            {
              "internalType": "uint256",
              "name": "tranID",
              "type": "uint256"
            },
            {
              "internalType": "string",
              "name": "orgID",
              "type": "string"
            },
            {
              "internalType": "uint256",
              "name": "withdrawalAmount",
              "type": "uint256"
            },
            {
              "internalType": "string",
              "name": "vendorName",
              "type": "string"
            },
            {
              "internalType": "string",
              "name": "vendorAddress",
              "type": "string"
            },
            {
              "internalType": "string",
              "name": "useofAmount",
              "type": "string"
            }
          ],
          "internalType": "struct Charity.withdrawal[]",
          "name": "",
          "type": "tuple[]"
        }
      ],
      "stateMutability": "view",
      "type": "function",
      "constant": true
    }
  ],
  "bytecode": "0x608060405273d0c5650f2033c662100ea38fdb69acc763b1367e6000806101000a81548173ffffffffffffffffffffffffffffffffffffffff021916908373ffffffffffffffffffffffffffffffffffffffff16021790555060018055600160025534801561006d57600080fd5b50612f6a8061007d6000396000f3fe608060405234801561001057600080fd5b506004361061009e5760003560e01c8063375aa7e211610066578063375aa7e21461014857806338a59a071461017d57806398e36b041461019b578063a9785f67146101b9578063c081e0de146101d55761009e565b806302cafe75146100a3578063086ed938146100c157806331dad732146100df5780633474c18014610110578063354652031461012c575b600080fd5b6100ab6101f1565b6040516100b89190611fcc565b60405180910390f35b6100c96104ac565b6040516100d6919061214e565b60405180910390f35b6100f960048036038101906100f491906122b9565b610767565b60405161010792919061234c565b60405180910390f35b61012a600480360381019061012591906123af565b61097b565b005b6101466004803603810190610141919061249a565b610da7565b005b610162600480360381019061015d91906122b9565b610f38565b60405161017496959493929190612521565b60405180910390f35b6101856112fc565b60405161019291906126ca565b60405180910390f35b6101a3611493565b6040516101b091906127f2565b60405180910390f35b6101d360048036038101906101ce9190612814565b611616565b005b6101ef60048036038101906101ea919061289f565b611a49565b005b6060600a805480602002602001604051908101604052809291908181526020016000905b828210156104a357838290600052602060002090600602016040518060c001604052908160008201548152602001600182018054610252906129b9565b80601f016020809104026020016040519081016040528092919081815260200182805461027e906129b9565b80156102cb5780601f106102a0576101008083540402835291602001916102cb565b820191906000526020600020905b8154815290600101906020018083116102ae57829003601f168201915b50505050508152602001600282015481526020016003820180546102ee906129b9565b80601f016020809104026020016040519081016040528092919081815260200182805461031a906129b9565b80156103675780601f1061033c57610100808354040283529160200191610367565b820191906000526020600020905b81548152906001019060200180831161034a57829003601f168201915b50505050508152602001600482018054610380906129b9565b80601f01602080910402602001604051908101604052809291908181526020018280546103ac906129b9565b80156103f95780601f106103ce576101008083540402835291602001916103f9565b820191906000526020600020905b8154815290600101906020018083116103dc57829003601f168201915b50505050508152602001600582018054610412906129b9565b80601f016020809104026020016040519081016040528092919081815260200182805461043e906129b9565b801561048b5780601f106104605761010080835404028352916020019161048b565b820191906000526020600020905b81548152906001019060200180831161046e57829003601f168201915b50505050508152505081526020019060010190610215565b50505050905090565b60606004805480602002602001604051908101604052809291908181526020016000905b8282101561075e57838290600052602060002090600602016040518060c0016040529081600082018054610503906129b9565b80601f016020809104026020016040519081016040528092919081815260200182805461052f906129b9565b801561057c5780601f106105515761010080835404028352916020019161057c565b820191906000526020600020905b81548152906001019060200180831161055f57829003601f168201915b50505050508152602001600182018054610595906129b9565b80601f01602080910402602001604051908101604052809291908181526020018280546105c1906129b9565b801561060e5780601f106105e35761010080835404028352916020019161060e565b820191906000526020600020905b8154815290600101906020018083116105f157829003601f168201915b50505050508152602001600282018054610627906129b9565b80601f0160208091040260200160405190810160405280929190818152602001828054610653906129b9565b80156106a05780601f10610675576101008083540402835291602001916106a0565b820191906000526020600020905b81548152906001019060200180831161068357829003601f168201915b505050505081526020016003820180546106b9906129b9565b80601f01602080910402602001604051908101604052809291908181526020018280546106e5906129b9565b80156107325780601f1061070757610100808354040283529160200191610732565b820191906000526020600020905b81548152906001019060200180831161071557829003601f168201915b5050505050815260200160048201548152602001600582015481525050815260200190600101906104d0565b50505050905090565b6060808260405160200161077b9190612a27565b604051602081830303815290604052805190602001206005846040516107a19190612a27565b90815260200160405180910390206000016040516020016107c29190612ad2565b6040516020818303038152906040528051906020012014610818576040517f08c379a000000000000000000000000000000000000000000000000000000000815260040161080f90612b35565b60405180910390fd5b6005836040516108289190612a27565b90815260200160405180910390206000016005846040516108499190612a27565b9081526020016040518091039020600101818054610866906129b9565b80601f0160208091040260200160405190810160405280929190818152602001828054610892906129b9565b80156108df5780601f106108b4576101008083540402835291602001916108df565b820191906000526020600020905b8154815290600101906020018083116108c257829003601f168201915b505050505091508080546108f2906129b9565b80601f016020809104026020016040519081016040528092919081815260200182805461091e906129b9565b801561096b5780601f106109405761010080835404028352916020019161096b565b820191906000526020600020905b81548152906001019060200180831161094e57829003601f168201915b5050505050905091509150915091565b8460405160200161098c9190612a27565b604051602081830303815290604052805190602001206003866040516109b29190612a27565b90815260200160405180910390206000016040516020016109d39190612ad2565b6040516020818303038152906040528051906020012014610a29576040517f08c379a0000000000000000000000000000000000000000000000000000000008152600401610a2090612ba1565b60405180910390fd5b83600386604051610a3a9190612a27565b9081526020016040518091039020600401541015610a8d576040517f08c379a0000000000000000000000000000000000000000000000000000000008152600401610a8490612c0d565b60405180910390fd5b6040518060c00160405280600254815260200186815260200185815260200183815260200182815260200184815250600960006002548152602001908152602001600020600082015181600001556020820151816001019080519060200190610af7929190611d17565b50604082015181600201556060820151816003019080519060200190610b1e929190611d17565b506080820151816004019080519060200190610b3b929190611d17565b5060a0820151816005019080519060200190610b58929190611d17565b5090505083600386604051610b6d9190612a27565b90815260200160405180910390206004016000828254610b8d9190612c5c565b9250508190555060005b600480549050811015610c9b5760048181548110610bb857610bb7612c90565b5b9060005260206000209060060201600001604051602001610bd99190612ad2565b60405160208183030381529060405280519060200120600387604051610bff9190612a27565b9081526020016040518091039020600001604051602001610c209190612ad2565b604051602081830303815290604052805190602001201415610c8857600386604051610c4c9190612a27565b90815260200160405180910390206004015460048281548110610c7257610c71612c90565b5b9060005260206000209060060201600401819055505b8080610c9390612cbf565b915050610b97565b5060006040518060c001604052806002548152602001878152602001868152602001848152602001838152602001858152509050600a819080600181540180825580915050600190039060005260206000209060060201600090919091909150600082015181600001556020820151816001019080519060200190610d21929190611d17565b50604082015181600201556060820151816003019080519060200190610d48929190611d17565b506080820151816004019080519060200190610d65929190611d17565b5060a0820151816005019080519060200190610d82929190611d17565b505050600160026000828254610d989190612d08565b92505081905550505050505050565b81604051602001610db89190612a27565b60405160208183030381529060405280519060200120600583604051610dde9190612a27565b9081526020016040518091039020600001604051602001610dff9190612ad2565b604051602081830303815290604052805190602001201415610e56576040517f08c379a0000000000000000000000000000000000000000000000000000000008152600401610e4d90612daa565b60405180910390fd5b6000604051806040016040528084815260200183815250905080600584604051610e809190612a27565b90815260200160405180910390206000820151816000019080519060200190610eaa929190611d17565b506020820151816001019080519060200190610ec7929190611d17565b5090505060068190806001815401808255809150506001900390600052602060002090600202016000909190919091506000820151816000019080519060200190610f13929190611d17565b506020820151816001019080519060200190610f30929190611d17565b505050505050565b60608060608060008086604051602001610f529190612a27565b60405160208183030381529060405280519060200120600388604051610f789190612a27565b9081526020016040518091039020600001604051602001610f999190612ad2565b6040516020818303038152906040528051906020012014610fef576040517f08c379a0000000000000000000000000000000000000000000000000000000008152600401610fe690612e16565b60405180910390fd5b600387604051610fff9190612a27565b90815260200160405180910390206000016003886040516110209190612a27565b90815260200160405180910390206001016003896040516110419190612a27565b908152602001604051809103902060020160038a6040516110629190612a27565b908152602001604051809103902060030160038b6040516110839190612a27565b90815260200160405180910390206004015460038c6040516110a59190612a27565b9081526020016040518091039020600501548580546110c3906129b9565b80601f01602080910402602001604051908101604052809291908181526020018280546110ef906129b9565b801561113c5780601f106111115761010080835404028352916020019161113c565b820191906000526020600020905b81548152906001019060200180831161111f57829003601f168201915b5050505050955084805461114f906129b9565b80601f016020809104026020016040519081016040528092919081815260200182805461117b906129b9565b80156111c85780601f1061119d576101008083540402835291602001916111c8565b820191906000526020600020905b8154815290600101906020018083116111ab57829003601f168201915b505050505094508380546111db906129b9565b80601f0160208091040260200160405190810160405280929190818152602001828054611207906129b9565b80156112545780601f1061122957610100808354040283529160200191611254565b820191906000526020600020905b81548152906001019060200180831161123757829003601f168201915b50505050509350828054611267906129b9565b80601f0160208091040260200160405190810160405280929190818152602001828054611293906129b9565b80156112e05780601f106112b5576101008083540402835291602001916112e0565b820191906000526020600020905b8154815290600101906020018083116112c357829003601f168201915b5050505050925095509550955095509550955091939550919395565b60606008805480602002602001604051908101604052809291908181526020016000905b8282101561148a57838290600052602060002090600402016040518060800160405290816000820154815260200160018201805461135d906129b9565b80601f0160208091040260200160405190810160405280929190818152602001828054611389906129b9565b80156113d65780601f106113ab576101008083540402835291602001916113d6565b820191906000526020600020905b8154815290600101906020018083116113b957829003601f168201915b505050505081526020016002820180546113ef906129b9565b80601f016020809104026020016040519081016040528092919081815260200182805461141b906129b9565b80156114685780601f1061143d57610100808354040283529160200191611468565b820191906000526020600020905b81548152906001019060200180831161144b57829003601f168201915b5050505050815260200160038201548152505081526020019060010190611320565b50505050905090565b60606006805480602002602001604051908101604052809291908181526020016000905b8282101561160d57838290600052602060002090600202016040518060400160405290816000820180546114ea906129b9565b80601f0160208091040260200160405190810160405280929190818152602001828054611516906129b9565b80156115635780601f1061153857610100808354040283529160200191611563565b820191906000526020600020905b81548152906001019060200180831161154657829003601f168201915b5050505050815260200160018201805461157c906129b9565b80601f01602080910402602001604051908101604052809291908181526020018280546115a8906129b9565b80156115f55780601f106115ca576101008083540402835291602001916115f5565b820191906000526020600020905b8154815290600101906020018083116115d857829003601f168201915b505050505081525050815260200190600101906114b7565b50505050905090565b826040516020016116279190612a27565b6040516020818303038152906040528051906020012060058460405161164d9190612a27565b908152602001604051809103902060000160405160200161166e9190612ad2565b604051602081830303815290604052805190602001201480156116fc57508160405160200161169d9190612a27565b604051602081830303815290604052805190602001206003836040516116c39190612a27565b90815260200160405180910390206000016040516020016116e49190612ad2565b60405160208183030381529060405280519060200120145b61173b576040517f08c379a000000000000000000000000000000000000000000000000000000000815260040161173290612ea8565b60405180910390fd5b6040518060800160405280600154815260200184815260200183815260200182815250600760006001548152602001908152602001600020600082015181600001556020820151816001019080519060200190611799929190611d17565b5060408201518160020190805190602001906117b6929190611d17565b5060608201518160030155905050806003836040516117d59190612a27565b908152602001604051809103902060040160008282546117f59190612d08565b925050819055508060038360405161180d9190612a27565b9081526020016040518091039020600501600082825461182d9190612d08565b9250508190555060005b600480549050811015611986576004818154811061185857611857612c90565b5b90600052602060002090600602016000016040516020016118799190612ad2565b6040516020818303038152906040528051906020012060038460405161189f9190612a27565b90815260200160405180910390206000016040516020016118c09190612ad2565b604051602081830303815290604052805190602001201415611973576003836040516118ec9190612a27565b9081526020016040518091039020600401546004828154811061191257611911612c90565b5b9060005260206000209060060201600401819055506003836040516119379190612a27565b9081526020016040518091039020600501546004828154811061195d5761195c612c90565b5b9060005260206000209060060201600501819055505b808061197e90612cbf565b915050611837565b506000604051806080016040528060015481526020018581526020018481526020018381525090506008819080600181540180825580915050600190039060005260206000209060040201600090919091909150600082015181600001556020820151816001019080519060200190611a00929190611d17565b506040820151816002019080519060200190611a1d929190611d17565b506060820151816003015550506001806000828254611a3c9190612d08565b9250508190555050505050565b60008054906101000a900473ffffffffffffffffffffffffffffffffffffffff1673ffffffffffffffffffffffffffffffffffffffff163373ffffffffffffffffffffffffffffffffffffffff1614611aa157600080fd5b84604051602001611ab29190612a27565b60405160208183030381529060405280519060200120600386604051611ad89190612a27565b9081526020016040518091039020600001604051602001611af99190612ad2565b604051602081830303815290604052805190602001201415611b50576040517f08c379a0000000000000000000000000000000000000000000000000000000008152600401611b4790612f14565b60405180910390fd5b60006040518060c00160405280878152602001868152602001858152602001848152602001838152602001600081525090506040518060c001604052808781526020018681526020018581526020018481526020018381526020016000815250600387604051611bc09190612a27565b90815260200160405180910390206000820151816000019080519060200190611bea929190611d17565b506020820151816001019080519060200190611c07929190611d17565b506040820151816002019080519060200190611c24929190611d17565b506060820151816003019080519060200190611c41929190611d17565b506080820151816004015560a0820151816005015590505060048190806001815401808255809150506001900390600052602060002090600602016000909190919091506000820151816000019080519060200190611ca1929190611d17565b506020820151816001019080519060200190611cbe929190611d17565b506040820151816002019080519060200190611cdb929190611d17565b506060820151816003019080519060200190611cf8929190611d17565b506080820151816004015560a082015181600501555050505050505050565b828054611d23906129b9565b90600052602060002090601f016020900481019282611d455760008555611d8c565b82601f10611d5e57805160ff1916838001178555611d8c565b82800160010185558215611d8c579182015b82811115611d8b578251825591602001919060010190611d70565b5b509050611d999190611d9d565b5090565b5b80821115611db6576000816000905550600101611d9e565b5090565b600081519050919050565b600082825260208201905092915050565b6000819050602082019050919050565b6000819050919050565b611df981611de6565b82525050565b600081519050919050565b600082825260208201905092915050565b60005b83811015611e39578082015181840152602081019050611e1e565b83811115611e48576000848401525b50505050565b6000601f19601f8301169050919050565b6000611e6a82611dff565b611e748185611e0a565b9350611e84818560208601611e1b565b611e8d81611e4e565b840191505092915050565b600060c083016000830151611eb06000860182611df0565b5060208301518482036020860152611ec88282611e5f565b9150506040830151611edd6040860182611df0565b5060608301518482036060860152611ef58282611e5f565b91505060808301518482036080860152611f0f8282611e5f565b91505060a083015184820360a0860152611f298282611e5f565b9150508091505092915050565b6000611f428383611e98565b905092915050565b6000602082019050919050565b6000611f6282611dba565b611f6c8185611dc5565b935083602082028501611f7e85611dd6565b8060005b85811015611fba5784840389528151611f9b8582611f36565b9450611fa683611f4a565b925060208a01995050600181019050611f82565b50829750879550505050505092915050565b60006020820190508181036000830152611fe68184611f57565b905092915050565b600081519050919050565b600082825260208201905092915050565b6000819050602082019050919050565b600060c08301600083015184820360008601526120378282611e5f565b915050602083015184820360208601526120518282611e5f565b9150506040830151848203604086015261206b8282611e5f565b915050606083015184820360608601526120858282611e5f565b915050608083015161209a6080860182611df0565b5060a08301516120ad60a0860182611df0565b508091505092915050565b60006120c4838361201a565b905092915050565b6000602082019050919050565b60006120e482611fee565b6120ee8185611ff9565b9350836020820285016121008561200a565b8060005b8581101561213c578484038952815161211d85826120b8565b9450612128836120cc565b925060208a01995050600181019050612104565b50829750879550505050505092915050565b6000602082019050818103600083015261216881846120d9565b905092915050565b6000604051905090565b600080fd5b600080fd5b600080fd5b600080fd5b7f4e487b7100000000000000000000000000000000000000000000000000000000600052604160045260246000fd5b6121c682611e4e565b810181811067ffffffffffffffff821117156121e5576121e461218e565b5b80604052505050565b60006121f8612170565b905061220482826121bd565b919050565b600067ffffffffffffffff8211156122245761222361218e565b5b61222d82611e4e565b9050602081019050919050565b82818337600083830152505050565b600061225c61225784612209565b6121ee565b90508281526020810184848401111561227857612277612189565b5b61228384828561223a565b509392505050565b600082601f8301126122a05761229f612184565b5b81356122b0848260208601612249565b91505092915050565b6000602082840312156122cf576122ce61217a565b5b600082013567ffffffffffffffff8111156122ed576122ec61217f565b5b6122f98482850161228b565b91505092915050565b600082825260208201905092915050565b600061231e82611dff565b6123288185612302565b9350612338818560208601611e1b565b61234181611e4e565b840191505092915050565b600060408201905081810360008301526123668185612313565b9050818103602083015261237a8184612313565b90509392505050565b61238c81611de6565b811461239757600080fd5b50565b6000813590506123a981612383565b92915050565b600080600080600060a086880312156123cb576123ca61217a565b5b600086013567ffffffffffffffff8111156123e9576123e861217f565b5b6123f58882890161228b565b95505060206124068882890161239a565b945050604086013567ffffffffffffffff8111156124275761242661217f565b5b6124338882890161228b565b935050606086013567ffffffffffffffff8111156124545761245361217f565b5b6124608882890161228b565b925050608086013567ffffffffffffffff8111156124815761248061217f565b5b61248d8882890161228b565b9150509295509295909350565b600080604083850312156124b1576124b061217a565b5b600083013567ffffffffffffffff8111156124cf576124ce61217f565b5b6124db8582860161228b565b925050602083013567ffffffffffffffff8111156124fc576124fb61217f565b5b6125088582860161228b565b9150509250929050565b61251b81611de6565b82525050565b600060c082019050818103600083015261253b8189612313565b9050818103602083015261254f8188612313565b905081810360408301526125638187612313565b905081810360608301526125778186612313565b90506125866080830185612512565b61259360a0830184612512565b979650505050505050565b600081519050919050565b600082825260208201905092915050565b6000819050602082019050919050565b60006080830160008301516125e26000860182611df0565b50602083015184820360208601526125fa8282611e5f565b915050604083015184820360408601526126148282611e5f565b91505060608301516126296060860182611df0565b508091505092915050565b600061264083836125ca565b905092915050565b6000602082019050919050565b60006126608261259e565b61266a81856125a9565b93508360208202850161267c856125ba565b8060005b858110156126b857848403895281516126998582612634565b94506126a483612648565b925060208a01995050600181019050612680565b50829750879550505050505092915050565b600060208201905081810360008301526126e48184612655565b905092915050565b600081519050919050565b600082825260208201905092915050565b6000819050602082019050919050565b600060408301600083015184820360008601526127358282611e5f565b9150506020830151848203602086015261274f8282611e5f565b9150508091505092915050565b60006127688383612718565b905092915050565b6000602082019050919050565b6000612788826126ec565b61279281856126f7565b9350836020820285016127a485612708565b8060005b858110156127e057848403895281516127c1858261275c565b94506127cc83612770565b925060208a019950506001810190506127a8565b50829750879550505050505092915050565b6000602082019050818103600083015261280c818461277d565b905092915050565b60008060006060848603121561282d5761282c61217a565b5b600084013567ffffffffffffffff81111561284b5761284a61217f565b5b6128578682870161228b565b935050602084013567ffffffffffffffff8111156128785761287761217f565b5b6128848682870161228b565b92505060406128958682870161239a565b9150509250925092565b600080600080600060a086880312156128bb576128ba61217a565b5b600086013567ffffffffffffffff8111156128d9576128d861217f565b5b6128e58882890161228b565b955050602086013567ffffffffffffffff8111156129065761290561217f565b5b6129128882890161228b565b945050604086013567ffffffffffffffff8111156129335761293261217f565b5b61293f8882890161228b565b935050606086013567ffffffffffffffff8111156129605761295f61217f565b5b61296c8882890161228b565b925050608061297d8882890161239a565b9150509295509295909350565b7f4e487b7100000000000000000000000000000000000000000000000000000000600052602260045260246000fd5b600060028204905060018216806129d157607f821691505b602082108114156129e5576129e461298a565b5b50919050565b600081905092915050565b6000612a0182611dff565b612a0b81856129eb565b9350612a1b818560208601611e1b565b80840191505092915050565b6000612a3382846129f6565b915081905092915050565b60008190508160005260206000209050919050565b60008154612a60816129b9565b612a6a81866129eb565b94506001821660008114612a855760018114612a9657612ac9565b60ff19831686528186019350612ac9565b612a9f85612a3e565b60005b83811015612ac157815481890152600182019150602081019050612aa2565b838801955050505b50505092915050565b6000612ade8284612a53565b915081905092915050565b7f446f6e6f7220646f6573206e6f74206578697374000000000000000000000000600082015250565b6000612b1f601483612302565b9150612b2a82612ae9565b602082019050919050565b60006020820190508181036000830152612b4e81612b12565b9050919050565b7f57726f6e67206f7267616e697a6174696f6e2049440000000000000000000000600082015250565b6000612b8b601583612302565b9150612b9682612b55565b602082019050919050565b60006020820190508181036000830152612bba81612b7e565b9050919050565b7f4e6f2073756666696369656e7420616d6f756e74000000000000000000000000600082015250565b6000612bf7601483612302565b9150612c0282612bc1565b602082019050919050565b60006020820190508181036000830152612c2681612bea565b9050919050565b7f4e487b7100000000000000000000000000000000000000000000000000000000600052601160045260246000fd5b6000612c6782611de6565b9150612c7283611de6565b925082821015612c8557612c84612c2d565b5b828203905092915050565b7f4e487b7100000000000000000000000000000000000000000000000000000000600052603260045260246000fd5b6000612cca82611de6565b91507fffffffffffffffffffffffffffffffffffffffffffffffffffffffffffffffff821415612cfd57612cfc612c2d565b5b600182019050919050565b6000612d1382611de6565b9150612d1e83611de6565b9250827fffffffffffffffffffffffffffffffffffffffffffffffffffffffffffffffff03821115612d5357612d52612c2d565b5b828201905092915050565b7f446f6e6f7220616c726561647920657869737473000000000000000000000000600082015250565b6000612d94601483612302565b9150612d9f82612d5e565b602082019050919050565b60006020820190508181036000830152612dc381612d87565b9050919050565b7f4f7267616e697a6174696f6e20646f6573206e6f742065786973740000000000600082015250565b6000612e00601b83612302565b9150612e0b82612dca565b602082019050919050565b60006020820190508181036000830152612e2f81612df3565b9050919050565b7f57726f6e6720646f6e6f72204944206f722077726f6e67206f7267616e697a6160008201527f74696f6e20494400000000000000000000000000000000000000000000000000602082015250565b6000612e92602783612302565b9150612e9d82612e36565b604082019050919050565b60006020820190508181036000830152612ec181612e85565b9050919050565b7f4f7267616e697a6174696f6e20616c7265616479206578697374730000000000600082015250565b6000612efe601b83612302565b9150612f0982612ec8565b602082019050919050565b60006020820190508181036000830152612f2d81612ef1565b905091905056fea2646970667358221220fa612aaebb63484983bd10484d35603c776dc0aa0b47a9276e21b1dee19489cd64736f6c634300080a0033",
  "immutableReferences": {},
  "source": "// SPDX-License-Identifier: MIT\r\n\r\npragma solidity ^0.8.10;\r\n\r\ncontract Charity\r\n{\r\n    address owner = 0xd0C5650F2033C662100ea38Fdb69aCc763B1367e;\r\n\r\n    modifier onlyOwner() {\r\n        require(msg.sender == owner);\r\n        _;\r\n    }\r\n    //Organization structure\r\n    uint transactionIDDonations = 1;\r\n    uint transactionIDWithdrawal = 1;\r\n    struct organization\r\n    {\r\n        string orgID;\r\n        string orgName;\r\n        string aim;\r\n        string website;\r\n        uint balance;\r\n        uint donationsRecieved;\r\n    }\r\n\r\n    mapping(string => organization) OrganizationsMap;\r\n    organization[] organizationArray;\r\n\r\n    // Donor structure\r\n\r\n    struct donor\r\n    {\r\n        string donorID;\r\n        string donorName;\r\n    }\r\n\r\n    mapping(string => donor) DonorsMap;\r\n    donor[] donorArray;\r\n\r\n    //Donations structure\r\n\r\n    struct donations\r\n    {\r\n        uint tranID;\r\n        string donorID;\r\n        string organizationID;\r\n        uint donatedAmount;\r\n    }\r\n\r\n    mapping(uint => donations) DonationsMap;\r\n    donations[] donationTransactions;\r\n\r\n    //Withdraw structure\r\n\r\n    struct withdrawal\r\n    {\r\n        uint tranID;\r\n        string orgID;\r\n        uint withdrawalAmount;\r\n        string vendorName;\r\n        string vendorAddress;\r\n        string useofAmount;\r\n    }\r\n\r\n    mapping (uint => withdrawal) WithDrawalMap;\r\n    withdrawal[] withdrawalTransactions;\r\n\r\n    //Set Organization\r\n\r\n    function setOrganization(\r\n        string memory _orgID, \r\n        string memory _orgName, \r\n        string memory _aim, \r\n        string memory _website,\r\n        uint _balance)\r\n        public \r\n        onlyOwner{\r\n            require(\r\n        keccak256(abi.encodePacked((OrganizationsMap[_orgID].orgID)))\r\n                    !=\r\n        keccak256(abi.encodePacked(_orgID)), \"Organization already exists\"); \r\n\r\n            organization memory newOrg = organization(_orgID, _orgName, _aim, _website, _balance, 0);\r\n\r\n            OrganizationsMap[_orgID] = organization(_orgID, _orgName, _aim,_website, _balance, 0);\r\n            organizationArray.push(newOrg);\r\n        }\r\n\r\n    //Get Organization\r\n\r\n    function getOrganization(string memory _orgID) public view returns(string memory, string memory, string memory,string memory, uint, uint)\r\n    {\r\n        require(keccak256(abi.encodePacked((OrganizationsMap[_orgID].orgID)))\r\n                    ==\r\n        keccak256(abi.encodePacked(_orgID)), \"Organization does not exist\");\r\n        return ( OrganizationsMap[_orgID].orgID, OrganizationsMap[_orgID].orgName, OrganizationsMap[_orgID].aim,OrganizationsMap[_orgID].website, OrganizationsMap[_orgID].balance, OrganizationsMap[_orgID].donationsRecieved);\r\n    }\r\n\r\n    //Get all Organizations\r\n\r\n    function getAllOrganizations()public view returns(organization[] memory){\r\n\r\n        return organizationArray;\r\n    }\r\n\r\n    //Set Donor\r\n\r\n    function setDonor(string memory _donorID, string memory _donorName)public{\r\n\r\n        require(\r\n        keccak256(abi.encodePacked((DonorsMap[_donorID].donorID)))\r\n                    !=\r\n        keccak256(abi.encodePacked(_donorID)), \"Donor already exists\"); \r\n\r\n        donor memory newDonor = donor(_donorID, _donorName);\r\n        DonorsMap[_donorID] = newDonor;\r\n        donorArray.push(newDonor);\r\n    }\r\n\r\n    //Get Donor\r\n\r\n    function getDonor(string memory _donorID)public view returns(string memory, string memory)\r\n    {\r\n        require(keccak256(abi.encodePacked((DonorsMap[_donorID].donorID)))\r\n                    ==\r\n        keccak256(abi.encodePacked(_donorID)), \"Donor does not exist\");\r\n        return (DonorsMap[_donorID].donorID, DonorsMap[_donorID].donorName);\r\n    }\r\n\r\n    //Get all donors\r\n    function getAllDonors() public view returns(donor[] memory)\r\n    {\r\n        return donorArray;\r\n    }\r\n\r\n\r\n    // Make Donations\r\n\r\n    function makeDonation(string memory _donorID, string memory _orgID, uint _donatedAmount)public {\r\n\r\n        require(\r\n             (keccak256(abi.encodePacked((DonorsMap[_donorID].donorID)))\r\n                    ==\r\n        keccak256(abi.encodePacked(_donorID)) && keccak256(abi.encodePacked((OrganizationsMap[_orgID].orgID)))\r\n                    ==\r\n        keccak256(abi.encodePacked(_orgID))), \"Wrong donor ID or wrong organization ID\"); \r\n\r\n        \r\n        DonationsMap[transactionIDDonations] = donations(transactionIDDonations, _donorID, _orgID, _donatedAmount);\r\n        OrganizationsMap[_orgID].balance += _donatedAmount;\r\n        OrganizationsMap[_orgID].donationsRecieved += _donatedAmount;\r\n\r\n\r\n        for(uint i = 0;i < organizationArray.length; i++)\r\n        {\r\n            if(keccak256(abi.encodePacked(OrganizationsMap[_orgID].orgID))\r\n                    ==\r\n            keccak256(abi.encodePacked(organizationArray[i].orgID)))\r\n            {\r\n                organizationArray[i].balance = OrganizationsMap[_orgID].balance;\r\n                organizationArray[i].donationsRecieved = OrganizationsMap[_orgID].donationsRecieved;\r\n            }\r\n        }\r\n\r\n        donations memory newDonation = donations(transactionIDDonations, _donorID, _orgID, _donatedAmount);\r\n        donationTransactions.push(newDonation);\r\n\r\n        transactionIDDonations += 1;\r\n        \r\n    }\r\n\r\n    // Withdrawal function\r\n\r\n    function makeWithDrawal(string memory _orgID, uint _withDrawalAmount, string memory _useofAmount, string memory _vendorName, string memory _vendorAddress)public {\r\n\r\n    require(keccak256(abi.encodePacked((OrganizationsMap[_orgID].orgID)))\r\n                    ==\r\n        keccak256(abi.encodePacked(_orgID)), \"Wrong organization ID\");\r\n\r\n    require(OrganizationsMap[_orgID].balance >= _withDrawalAmount, \"No sufficient amount\");\r\n\r\n    WithDrawalMap[transactionIDWithdrawal] = withdrawal(transactionIDWithdrawal, _orgID, _withDrawalAmount, _vendorName, _vendorAddress, _useofAmount);\r\n    OrganizationsMap[_orgID].balance -= _withDrawalAmount;\r\n\r\n    for(uint i = 0;i < organizationArray.length; i++)\r\n    {\r\n        if(keccak256(abi.encodePacked(OrganizationsMap[_orgID].orgID))\r\n                ==\r\n        keccak256(abi.encodePacked(organizationArray[i].orgID)))\r\n        {\r\n            organizationArray[i].balance = OrganizationsMap[_orgID].balance;\r\n        }\r\n    }\r\n\r\n    withdrawal memory newWithdrawal = withdrawal(transactionIDWithdrawal, _orgID, _withDrawalAmount, _vendorName, _vendorAddress, _useofAmount);\r\n    withdrawalTransactions.push(newWithdrawal);\r\n\r\n    transactionIDWithdrawal += 1;\r\n    }\r\n    // Get all donations\r\n\r\n    function getAllDonations() public view returns(donations[] memory)\r\n    {\r\n        return donationTransactions;\r\n    }\r\n\r\n    //Get all withdrawals\r\n\r\n    function getAllWithdrawals() public view returns(withdrawal[] memory)\r\n    {\r\n        return withdrawalTransactions;\r\n    }\r\n\r\n}",
  "sourcePath": "C:\\Users\\bhava\\OneDrive\\Documents\\MiniProject\\contracts\\Charity.sol",
  "compiler": {
    "name": "solc",
    "version": "0.8.10+commit.fc410830.Emscripten.clang"
  },
  "schemaVersion": "3.4.4",
  "updatedAt": "2022-02-22T04:38:24.654Z",
  "networkType": "ethereum",
  "devdoc": {
    "kind": "dev",
    "methods": {},
    "version": 1
  },
  "userdoc": {
    "kind": "user",
    "methods": {},
    "version": 1
  }
}